{
  "_format": "hh-sol-artifact-1",
  "contractName": "MusicNFT",
  "sourceName": "src/ethereum/contracts/MusicNFT.sol",
  "abi": [
    {
      "inputs": [],
      "stateMutability": "nonpayable",
      "type": "constructor"
    },
    {
      "inputs": [
        {
          "internalType": "address",
          "name": "sender",
          "type": "address"
        },
        {
          "internalType": "uint256",
          "name": "tokenId",
          "type": "uint256"
        },
        {
          "internalType": "address",
          "name": "owner",
          "type": "address"
        }
      ],
      "name": "ERC721IncorrectOwner",
      "type": "error"
    },
    {
      "inputs": [
        {
          "internalType": "address",
          "name": "operator",
          "type": "address"
        },
        {
          "internalType": "uint256",
          "name": "tokenId",
          "type": "uint256"
        }
      ],
      "name": "ERC721InsufficientApproval",
      "type": "error"
    },
    {
      "inputs": [
        {
          "internalType": "address",
          "name": "approver",
          "type": "address"
        }
      ],
      "name": "ERC721InvalidApprover",
      "type": "error"
    },
    {
      "inputs": [
        {
          "internalType": "address",
          "name": "operator",
          "type": "address"
        }
      ],
      "name": "ERC721InvalidOperator",
      "type": "error"
    },
    {
      "inputs": [
        {
          "internalType": "address",
          "name": "owner",
          "type": "address"
        }
      ],
      "name": "ERC721InvalidOwner",
      "type": "error"
    },
    {
      "inputs": [
        {
          "internalType": "address",
          "name": "receiver",
          "type": "address"
        }
      ],
      "name": "ERC721InvalidReceiver",
      "type": "error"
    },
    {
      "inputs": [
        {
          "internalType": "address",
          "name": "sender",
          "type": "address"
        }
      ],
      "name": "ERC721InvalidSender",
      "type": "error"
    },
    {
      "inputs": [
        {
          "internalType": "uint256",
          "name": "tokenId",
          "type": "uint256"
        }
      ],
      "name": "ERC721NonexistentToken",
      "type": "error"
    },
    {
      "anonymous": false,
      "inputs": [
        {
          "indexed": true,
          "internalType": "address",
          "name": "owner",
          "type": "address"
        },
        {
          "indexed": true,
          "internalType": "address",
          "name": "approved",
          "type": "address"
        },
        {
          "indexed": true,
          "internalType": "uint256",
          "name": "tokenId",
          "type": "uint256"
        }
      ],
      "name": "Approval",
      "type": "event"
    },
    {
      "anonymous": false,
      "inputs": [
        {
          "indexed": true,
          "internalType": "address",
          "name": "owner",
          "type": "address"
        },
        {
          "indexed": true,
          "internalType": "address",
          "name": "operator",
          "type": "address"
        },
        {
          "indexed": false,
          "internalType": "bool",
          "name": "approved",
          "type": "bool"
        }
      ],
      "name": "ApprovalForAll",
      "type": "event"
    },
    {
      "anonymous": false,
      "inputs": [
        {
          "indexed": false,
          "internalType": "uint256",
          "name": "_fromTokenId",
          "type": "uint256"
        },
        {
          "indexed": false,
          "internalType": "uint256",
          "name": "_toTokenId",
          "type": "uint256"
        }
      ],
      "name": "BatchMetadataUpdate",
      "type": "event"
    },
    {
      "anonymous": false,
      "inputs": [
        {
          "indexed": false,
          "internalType": "uint256",
          "name": "_tokenId",
          "type": "uint256"
        }
      ],
      "name": "MetadataUpdate",
      "type": "event"
    },
    {
      "anonymous": false,
      "inputs": [
        {
          "indexed": true,
          "internalType": "address",
          "name": "from",
          "type": "address"
        },
        {
          "indexed": true,
          "internalType": "address",
          "name": "to",
          "type": "address"
        },
        {
          "indexed": true,
          "internalType": "uint256",
          "name": "tokenId",
          "type": "uint256"
        }
      ],
      "name": "Transfer",
      "type": "event"
    },
    {
      "inputs": [
        {
          "internalType": "address",
          "name": "to",
          "type": "address"
        },
        {
          "internalType": "uint256",
          "name": "tokenId",
          "type": "uint256"
        }
      ],
      "name": "approve",
      "outputs": [],
      "stateMutability": "nonpayable",
      "type": "function"
    },
    {
      "inputs": [
        {
          "internalType": "address",
          "name": "owner",
          "type": "address"
        }
      ],
      "name": "balanceOf",
      "outputs": [
        {
          "internalType": "uint256",
          "name": "",
          "type": "uint256"
        }
      ],
      "stateMutability": "view",
      "type": "function"
    },
    {
      "inputs": [
        {
          "internalType": "uint256",
          "name": "tokenId",
          "type": "uint256"
        }
      ],
      "name": "getApproved",
      "outputs": [
        {
          "internalType": "address",
          "name": "",
          "type": "address"
        }
      ],
      "stateMutability": "view",
      "type": "function"
    },
    {
      "inputs": [
        {
          "internalType": "uint256",
          "name": "tokenId",
          "type": "uint256"
        }
      ],
      "name": "getArtist",
      "outputs": [
        {
          "internalType": "address",
          "name": "",
          "type": "address"
        }
      ],
      "stateMutability": "view",
      "type": "function"
    },
    {
      "inputs": [
        {
          "internalType": "address",
          "name": "owner",
          "type": "address"
        },
        {
          "internalType": "address",
          "name": "operator",
          "type": "address"
        }
      ],
      "name": "isApprovedForAll",
      "outputs": [
        {
          "internalType": "bool",
          "name": "",
          "type": "bool"
        }
      ],
      "stateMutability": "view",
      "type": "function"
    },
    {
      "inputs": [
        {
          "internalType": "string",
          "name": "tokenURI",
          "type": "string"
        }
      ],
      "name": "mintArtistNFT",
      "outputs": [],
      "stateMutability": "nonpayable",
      "type": "function"
    },
    {
      "inputs": [],
      "name": "name",
      "outputs": [
        {
          "internalType": "string",
          "name": "",
          "type": "string"
        }
      ],
      "stateMutability": "view",
      "type": "function"
    },
    {
      "inputs": [
        {
          "internalType": "uint256",
          "name": "tokenId",
          "type": "uint256"
        }
      ],
      "name": "ownerOf",
      "outputs": [
        {
          "internalType": "address",
          "name": "",
          "type": "address"
        }
      ],
      "stateMutability": "view",
      "type": "function"
    },
    {
      "inputs": [
        {
          "internalType": "address",
          "name": "from",
          "type": "address"
        },
        {
          "internalType": "address",
          "name": "to",
          "type": "address"
        },
        {
          "internalType": "uint256",
          "name": "tokenId",
          "type": "uint256"
        }
      ],
      "name": "safeTransferFrom",
      "outputs": [],
      "stateMutability": "nonpayable",
      "type": "function"
    },
    {
      "inputs": [
        {
          "internalType": "address",
          "name": "from",
          "type": "address"
        },
        {
          "internalType": "address",
          "name": "to",
          "type": "address"
        },
        {
          "internalType": "uint256",
          "name": "tokenId",
          "type": "uint256"
        },
        {
          "internalType": "bytes",
          "name": "data",
          "type": "bytes"
        }
      ],
      "name": "safeTransferFrom",
      "outputs": [],
      "stateMutability": "nonpayable",
      "type": "function"
    },
    {
      "inputs": [
        {
          "internalType": "address",
          "name": "operator",
          "type": "address"
        },
        {
          "internalType": "bool",
          "name": "approved",
          "type": "bool"
        }
      ],
      "name": "setApprovalForAll",
      "outputs": [],
      "stateMutability": "nonpayable",
      "type": "function"
    },
    {
      "inputs": [
        {
          "internalType": "bytes4",
          "name": "interfaceId",
          "type": "bytes4"
        }
      ],
      "name": "supportsInterface",
      "outputs": [
        {
          "internalType": "bool",
          "name": "",
          "type": "bool"
        }
      ],
      "stateMutability": "view",
      "type": "function"
    },
    {
      "inputs": [],
      "name": "symbol",
      "outputs": [
        {
          "internalType": "string",
          "name": "",
          "type": "string"
        }
      ],
      "stateMutability": "view",
      "type": "function"
    },
    {
      "inputs": [
        {
          "internalType": "uint256",
          "name": "tokenId",
          "type": "uint256"
        }
      ],
      "name": "tokenURI",
      "outputs": [
        {
          "internalType": "string",
          "name": "",
          "type": "string"
        }
      ],
      "stateMutability": "view",
      "type": "function"
    },
    {
      "inputs": [
        {
          "internalType": "address",
          "name": "from",
          "type": "address"
        },
        {
          "internalType": "address",
          "name": "to",
          "type": "address"
        },
        {
          "internalType": "uint256",
          "name": "tokenId",
          "type": "uint256"
        }
      ],
      "name": "transferFrom",
      "outputs": [],
      "stateMutability": "nonpayable",
      "type": "function"
    }
  ],
  "bytecode": "0x60806040523480156200001157600080fd5b506040518060400160405280600881526020017f4d757369634e46540000000000000000000000000000000000000000000000008152506040518060400160405280600481526020017f4d4e46540000000000000000000000000000000000000000000000000000000081525081600090816200008f919062000324565b508060019081620000a1919062000324565b5050506200040b565b600081519050919050565b7f4e487b7100000000000000000000000000000000000000000000000000000000600052604160045260246000fd5b7f4e487b7100000000000000000000000000000000000000000000000000000000600052602260045260246000fd5b600060028204905060018216806200012c57607f821691505b602082108103620001425762000141620000e4565b5b50919050565b60008190508160005260206000209050919050565b60006020601f8301049050919050565b600082821b905092915050565b600060088302620001ac7fffffffffffffffffffffffffffffffffffffffffffffffffffffffffffffffff826200016d565b620001b886836200016d565b95508019841693508086168417925050509392505050565b6000819050919050565b6000819050919050565b600062000205620001ff620001f984620001d0565b620001da565b620001d0565b9050919050565b6000819050919050565b6200022183620001e4565b6200023962000230826200020c565b8484546200017a565b825550505050565b600090565b6200025062000241565b6200025d81848462000216565b505050565b5b8181101562000285576200027960008262000246565b60018101905062000263565b5050565b601f821115620002d4576200029e8162000148565b620002a9846200015d565b81016020851015620002b9578190505b620002d1620002c8856200015d565b83018262000262565b50505b505050565b600082821c905092915050565b6000620002f960001984600802620002d9565b1980831691505092915050565b6000620003148383620002e6565b9150826002028217905092915050565b6200032f82620000aa565b67ffffffffffffffff8111156200034b576200034a620000b5565b5b62000357825462000113565b6200036482828562000289565b600060209050601f8311600181146200039c576000841562000387578287015190505b62000393858262000306565b86555062000403565b601f198416620003ac8662000148565b60005b82811015620003d657848901518255600182019150602085019450602081019050620003af565b86831015620003f65784890151620003f2601f891682620002e6565b8355505b6001600288020188555050505b505050505050565b612484806200041b6000396000f3fe608060405234801561001057600080fd5b50600436106100f55760003560e01c806370a0823111610097578063a674e09a11610066578063a674e09a14610296578063b88d4fde146102b2578063c87b56dd146102ce578063e985e9c5146102fe576100f5565b806370a08231146101fc578063811dd0e21461022c57806395d89b411461025c578063a22cb4651461027a576100f5565b8063095ea7b3116100d3578063095ea7b31461017857806323b872dd1461019457806342842e0e146101b05780636352211e146101cc576100f5565b806301ffc9a7146100fa57806306fdde031461012a578063081812fc14610148575b600080fd5b610114600480360381019061010f9190611903565b61032e565b604051610121919061194b565b60405180910390f35b61013261038f565b60405161013f91906119f6565b60405180910390f35b610162600480360381019061015d9190611a4e565b610421565b60405161016f9190611abc565b60405180910390f35b610192600480360381019061018d9190611b03565b61043d565b005b6101ae60048036038101906101a99190611b43565b610453565b005b6101ca60048036038101906101c59190611b43565b610555565b005b6101e660048036038101906101e19190611a4e565b610575565b6040516101f39190611abc565b60405180910390f35b61021660048036038101906102119190611b96565b610587565b6040516102239190611bd2565b60405180910390f35b61024660048036038101906102419190611a4e565b610641565b6040516102539190611abc565b60405180910390f35b61026461067e565b60405161027191906119f6565b60405180910390f35b610294600480360381019061028f9190611c19565b610710565b005b6102b060048036038101906102ab9190611d8e565b610726565b005b6102cc60048036038101906102c79190611e78565b6107b1565b005b6102e860048036038101906102e39190611a4e565b6107ce565b6040516102f591906119f6565b60405180910390f35b61031860048036038101906103139190611efb565b6108e1565b604051610325919061194b565b60405180910390f35b6000634906490660e01b7bffffffffffffffffffffffffffffffffffffffffffffffffffffffff1916827bffffffffffffffffffffffffffffffffffffffffffffffffffffffff19161480610388575061038782610975565b5b9050919050565b60606000805461039e90611f6a565b80601f01602080910402602001604051908101604052809291908181526020018280546103ca90611f6a565b80156104175780601f106103ec57610100808354040283529160200191610417565b820191906000526020600020905b8154815290600101906020018083116103fa57829003601f168201915b5050505050905090565b600061042c82610a57565b5061043682610adf565b9050919050565b61044f828261044a610b1c565b610b24565b5050565b600073ffffffffffffffffffffffffffffffffffffffff168273ffffffffffffffffffffffffffffffffffffffff16036104c55760006040517f64a0ae920000000000000000000000000000000000000000000000000000000081526004016104bc9190611abc565b60405180910390fd5b60006104d983836104d4610b1c565b610b36565b90508373ffffffffffffffffffffffffffffffffffffffff168173ffffffffffffffffffffffffffffffffffffffff161461054f578382826040517f64283d7b00000000000000000000000000000000000000000000000000000000815260040161054693929190611f9b565b60405180910390fd5b50505050565b610570838383604051806020016040528060008152506107b1565b505050565b600061058082610a57565b9050919050565b60008073ffffffffffffffffffffffffffffffffffffffff168273ffffffffffffffffffffffffffffffffffffffff16036105fa5760006040517f89c62b640000000000000000000000000000000000000000000000000000000081526004016105f19190611abc565b60405180910390fd5b600360008373ffffffffffffffffffffffffffffffffffffffff1673ffffffffffffffffffffffffffffffffffffffff168152602001908152602001600020549050919050565b60006008600083815260200190815260200160002060009054906101000a900473ffffffffffffffffffffffffffffffffffffffff169050919050565b60606001805461068d90611f6a565b80601f01602080910402602001604051908101604052809291908181526020018280546106b990611f6a565b80156107065780601f106106db57610100808354040283529160200191610706565b820191906000526020600020905b8154815290600101906020018083116106e957829003601f168201915b5050505050905090565b61072261071b610b1c565b8383610d50565b5050565b600060075490506107373382610ebf565b6107418183610edd565b336008600083815260200190815260200160002060006101000a81548173ffffffffffffffffffffffffffffffffffffffff021916908373ffffffffffffffffffffffffffffffffffffffff1602179055506001600760008282546107a69190612001565b925050819055505050565b6107bc848484610453565b6107c884848484610f39565b50505050565b60606107d982610a57565b5060006006600084815260200190815260200160002080546107fa90611f6a565b80601f016020809104026020016040519081016040528092919081815260200182805461082690611f6a565b80156108735780601f1061084857610100808354040283529160200191610873565b820191906000526020600020905b81548152906001019060200180831161085657829003601f168201915b5050505050905060006108846110f0565b905060008151036108995781925050506108dc565b6000825111156108ce5780826040516020016108b6929190612071565b604051602081830303815290604052925050506108dc565b6108d784611107565b925050505b919050565b6000600560008473ffffffffffffffffffffffffffffffffffffffff1673ffffffffffffffffffffffffffffffffffffffff16815260200190815260200160002060008373ffffffffffffffffffffffffffffffffffffffff1673ffffffffffffffffffffffffffffffffffffffff16815260200190815260200160002060009054906101000a900460ff16905092915050565b60007f80ac58cd000000000000000000000000000000000000000000000000000000007bffffffffffffffffffffffffffffffffffffffffffffffffffffffff1916827bffffffffffffffffffffffffffffffffffffffffffffffffffffffff19161480610a4057507f5b5e139f000000000000000000000000000000000000000000000000000000007bffffffffffffffffffffffffffffffffffffffffffffffffffffffff1916827bffffffffffffffffffffffffffffffffffffffffffffffffffffffff1916145b80610a505750610a4f82611170565b5b9050919050565b600080610a63836111da565b9050600073ffffffffffffffffffffffffffffffffffffffff168173ffffffffffffffffffffffffffffffffffffffff1603610ad657826040517f7e273289000000000000000000000000000000000000000000000000000000008152600401610acd9190611bd2565b60405180910390fd5b80915050919050565b60006004600083815260200190815260200160002060009054906101000a900473ffffffffffffffffffffffffffffffffffffffff169050919050565b600033905090565b610b318383836001611217565b505050565b600080610b42846111da565b9050600073ffffffffffffffffffffffffffffffffffffffff168373ffffffffffffffffffffffffffffffffffffffff1614610b8457610b838184866113dc565b5b600073ffffffffffffffffffffffffffffffffffffffff168173ffffffffffffffffffffffffffffffffffffffff1614610c1557610bc6600085600080611217565b6001600360008373ffffffffffffffffffffffffffffffffffffffff1673ffffffffffffffffffffffffffffffffffffffff168152602001908152602001600020600082825403925050819055505b600073ffffffffffffffffffffffffffffffffffffffff168573ffffffffffffffffffffffffffffffffffffffff1614610c98576001600360008773ffffffffffffffffffffffffffffffffffffffff1673ffffffffffffffffffffffffffffffffffffffff168152602001908152602001600020600082825401925050819055505b846002600086815260200190815260200160002060006101000a81548173ffffffffffffffffffffffffffffffffffffffff021916908373ffffffffffffffffffffffffffffffffffffffff160217905550838573ffffffffffffffffffffffffffffffffffffffff168273ffffffffffffffffffffffffffffffffffffffff167fddf252ad1be2c89b69c2b068fc378daa952ba7f163c4a11628f55a4df523b3ef60405160405180910390a4809150509392505050565b600073ffffffffffffffffffffffffffffffffffffffff168273ffffffffffffffffffffffffffffffffffffffff1603610dc157816040517f5b08ba18000000000000000000000000000000000000000000000000000000008152600401610db89190611abc565b60405180910390fd5b80600560008573ffffffffffffffffffffffffffffffffffffffff1673ffffffffffffffffffffffffffffffffffffffff16815260200190815260200160002060008473ffffffffffffffffffffffffffffffffffffffff1673ffffffffffffffffffffffffffffffffffffffff16815260200190815260200160002060006101000a81548160ff0219169083151502179055508173ffffffffffffffffffffffffffffffffffffffff168373ffffffffffffffffffffffffffffffffffffffff167f17307eab39ab6107e8899845ad3d59bd9653f200f220920489ca2b5937696c3183604051610eb2919061194b565b60405180910390a3505050565b610ed98282604051806020016040528060008152506114a0565b5050565b80600660008481526020019081526020016000209081610efd9190612241565b507ff8e1a15aba9398e019f0b49df1a4fde98ee17ae345cb5f6b5e2c27f5033e8ce782604051610f2d9190611bd2565b60405180910390a15050565b60008373ffffffffffffffffffffffffffffffffffffffff163b11156110ea578273ffffffffffffffffffffffffffffffffffffffff1663150b7a02610f7d610b1c565b8685856040518563ffffffff1660e01b8152600401610f9f9493929190612368565b6020604051808303816000875af1925050508015610fdb57506040513d601f19601f82011682018060405250810190610fd891906123c9565b60015b61105f573d806000811461100b576040519150601f19603f3d011682016040523d82523d6000602084013e611010565b606091505b50600081510361105757836040517f64a0ae9200000000000000000000000000000000000000000000000000000000815260040161104e9190611abc565b60405180910390fd5b805181602001fd5b63150b7a0260e01b7bffffffffffffffffffffffffffffffffffffffffffffffffffffffff1916817bffffffffffffffffffffffffffffffffffffffffffffffffffffffff1916146110e857836040517f64a0ae920000000000000000000000000000000000000000000000000000000081526004016110df9190611abc565b60405180910390fd5b505b50505050565b606060405180602001604052806000815250905090565b606061111282610a57565b50600061111d6110f0565b9050600081511161113d5760405180602001604052806000815250611168565b80611147846114bc565b604051602001611158929190612071565b6040516020818303038152906040525b915050919050565b60007f01ffc9a7000000000000000000000000000000000000000000000000000000007bffffffffffffffffffffffffffffffffffffffffffffffffffffffff1916827bffffffffffffffffffffffffffffffffffffffffffffffffffffffff1916149050919050565b60006002600083815260200190815260200160002060009054906101000a900473ffffffffffffffffffffffffffffffffffffffff169050919050565b80806112505750600073ffffffffffffffffffffffffffffffffffffffff168273ffffffffffffffffffffffffffffffffffffffff1614155b1561138457600061126084610a57565b9050600073ffffffffffffffffffffffffffffffffffffffff168373ffffffffffffffffffffffffffffffffffffffff16141580156112cb57508273ffffffffffffffffffffffffffffffffffffffff168173ffffffffffffffffffffffffffffffffffffffff1614155b80156112de57506112dc81846108e1565b155b1561132057826040517fa9fbf51f0000000000000000000000000000000000000000000000000000000081526004016113179190611abc565b60405180910390fd5b811561138257838573ffffffffffffffffffffffffffffffffffffffff168273ffffffffffffffffffffffffffffffffffffffff167f8c5be1e5ebec7d5bd14f71427d1e84f3dd0314c0f7b2291e5b200ac8c7c3b92560405160405180910390a45b505b836004600085815260200190815260200160002060006101000a81548173ffffffffffffffffffffffffffffffffffffffff021916908373ffffffffffffffffffffffffffffffffffffffff16021790555050505050565b6113e783838361158a565b61149b57600073ffffffffffffffffffffffffffffffffffffffff168373ffffffffffffffffffffffffffffffffffffffff160361145c57806040517f7e2732890000000000000000000000000000000000000000000000000000000081526004016114539190611bd2565b60405180910390fd5b81816040517f177e802f0000000000000000000000000000000000000000000000000000000081526004016114929291906123f6565b60405180910390fd5b505050565b6114aa838361164b565b6114b76000848484610f39565b505050565b6060600060016114cb84611744565b01905060008167ffffffffffffffff8111156114ea576114e9611c63565b5b6040519080825280601f01601f19166020018201604052801561151c5781602001600182028036833780820191505090505b509050600082602001820190505b60011561157f578080600190039150507f3031323334353637383961626364656600000000000000000000000000000000600a86061a8153600a85816115735761157261241f565b5b0494506000850361152a575b819350505050919050565b60008073ffffffffffffffffffffffffffffffffffffffff168373ffffffffffffffffffffffffffffffffffffffff161415801561164257508273ffffffffffffffffffffffffffffffffffffffff168473ffffffffffffffffffffffffffffffffffffffff161480611603575061160284846108e1565b5b8061164157508273ffffffffffffffffffffffffffffffffffffffff1661162983610adf565b73ffffffffffffffffffffffffffffffffffffffff16145b5b90509392505050565b600073ffffffffffffffffffffffffffffffffffffffff168273ffffffffffffffffffffffffffffffffffffffff16036116bd5760006040517f64a0ae920000000000000000000000000000000000000000000000000000000081526004016116b49190611abc565b60405180910390fd5b60006116cb83836000610b36565b9050600073ffffffffffffffffffffffffffffffffffffffff168173ffffffffffffffffffffffffffffffffffffffff161461173f5760006040517f73c6ac6e0000000000000000000000000000000000000000000000000000000081526004016117369190611abc565b60405180910390fd5b505050565b600080600090507a184f03e93ff9f4daa797ed6e38ed64bf6a1f01000000000000000083106117a2577a184f03e93ff9f4daa797ed6e38ed64bf6a1f01000000000000000083816117985761179761241f565b5b0492506040810190505b6d04ee2d6d415b85acef810000000083106117df576d04ee2d6d415b85acef810000000083816117d5576117d461241f565b5b0492506020810190505b662386f26fc10000831061180e57662386f26fc1000083816118045761180361241f565b5b0492506010810190505b6305f5e1008310611837576305f5e100838161182d5761182c61241f565b5b0492506008810190505b612710831061185c5761271083816118525761185161241f565b5b0492506004810190505b6064831061187f57606483816118755761187461241f565b5b0492506002810190505b600a831061188e576001810190505b80915050919050565b6000604051905090565b600080fd5b600080fd5b60007fffffffff0000000000000000000000000000000000000000000000000000000082169050919050565b6118e0816118ab565b81146118eb57600080fd5b50565b6000813590506118fd816118d7565b92915050565b600060208284031215611919576119186118a1565b5b6000611927848285016118ee565b91505092915050565b60008115159050919050565b61194581611930565b82525050565b6000602082019050611960600083018461193c565b92915050565b600081519050919050565b600082825260208201905092915050565b60005b838110156119a0578082015181840152602081019050611985565b60008484015250505050565b6000601f19601f8301169050919050565b60006119c882611966565b6119d28185611971565b93506119e2818560208601611982565b6119eb816119ac565b840191505092915050565b60006020820190508181036000830152611a1081846119bd565b905092915050565b6000819050919050565b611a2b81611a18565b8114611a3657600080fd5b50565b600081359050611a4881611a22565b92915050565b600060208284031215611a6457611a636118a1565b5b6000611a7284828501611a39565b91505092915050565b600073ffffffffffffffffffffffffffffffffffffffff82169050919050565b6000611aa682611a7b565b9050919050565b611ab681611a9b565b82525050565b6000602082019050611ad16000830184611aad565b92915050565b611ae081611a9b565b8114611aeb57600080fd5b50565b600081359050611afd81611ad7565b92915050565b60008060408385031215611b1a57611b196118a1565b5b6000611b2885828601611aee565b9250506020611b3985828601611a39565b9150509250929050565b600080600060608486031215611b5c57611b5b6118a1565b5b6000611b6a86828701611aee565b9350506020611b7b86828701611aee565b9250506040611b8c86828701611a39565b9150509250925092565b600060208284031215611bac57611bab6118a1565b5b6000611bba84828501611aee565b91505092915050565b611bcc81611a18565b82525050565b6000602082019050611be76000830184611bc3565b92915050565b611bf681611930565b8114611c0157600080fd5b50565b600081359050611c1381611bed565b92915050565b60008060408385031215611c3057611c2f6118a1565b5b6000611c3e85828601611aee565b9250506020611c4f85828601611c04565b9150509250929050565b600080fd5b600080fd5b7f4e487b7100000000000000000000000000000000000000000000000000000000600052604160045260246000fd5b611c9b826119ac565b810181811067ffffffffffffffff82111715611cba57611cb9611c63565b5b80604052505050565b6000611ccd611897565b9050611cd98282611c92565b919050565b600067ffffffffffffffff821115611cf957611cf8611c63565b5b611d02826119ac565b9050602081019050919050565b82818337600083830152505050565b6000611d31611d2c84611cde565b611cc3565b905082815260208101848484011115611d4d57611d4c611c5e565b5b611d58848285611d0f565b509392505050565b600082601f830112611d7557611d74611c59565b5b8135611d85848260208601611d1e565b91505092915050565b600060208284031215611da457611da36118a1565b5b600082013567ffffffffffffffff811115611dc257611dc16118a6565b5b611dce84828501611d60565b91505092915050565b600067ffffffffffffffff821115611df257611df1611c63565b5b611dfb826119ac565b9050602081019050919050565b6000611e1b611e1684611dd7565b611cc3565b905082815260208101848484011115611e3757611e36611c5e565b5b611e42848285611d0f565b509392505050565b600082601f830112611e5f57611e5e611c59565b5b8135611e6f848260208601611e08565b91505092915050565b60008060008060808587031215611e9257611e916118a1565b5b6000611ea087828801611aee565b9450506020611eb187828801611aee565b9350506040611ec287828801611a39565b925050606085013567ffffffffffffffff811115611ee357611ee26118a6565b5b611eef87828801611e4a565b91505092959194509250565b60008060408385031215611f1257611f116118a1565b5b6000611f2085828601611aee565b9250506020611f3185828601611aee565b9150509250929050565b7f4e487b7100000000000000000000000000000000000000000000000000000000600052602260045260246000fd5b60006002820490506001821680611f8257607f821691505b602082108103611f9557611f94611f3b565b5b50919050565b6000606082019050611fb06000830186611aad565b611fbd6020830185611bc3565b611fca6040830184611aad565b949350505050565b7f4e487b7100000000000000000000000000000000000000000000000000000000600052601160045260246000fd5b600061200c82611a18565b915061201783611a18565b925082820190508082111561202f5761202e611fd2565b5b92915050565b600081905092915050565b600061204b82611966565b6120558185612035565b9350612065818560208601611982565b80840191505092915050565b600061207d8285612040565b91506120898284612040565b91508190509392505050565b60008190508160005260206000209050919050565b60006020601f8301049050919050565b600082821b905092915050565b6000600883026120f77fffffffffffffffffffffffffffffffffffffffffffffffffffffffffffffffff826120ba565b61210186836120ba565b95508019841693508086168417925050509392505050565b6000819050919050565b600061213e61213961213484611a18565b612119565b611a18565b9050919050565b6000819050919050565b61215883612123565b61216c61216482612145565b8484546120c7565b825550505050565b600090565b612181612174565b61218c81848461214f565b505050565b5b818110156121b0576121a5600082612179565b600181019050612192565b5050565b601f8211156121f5576121c681612095565b6121cf846120aa565b810160208510156121de578190505b6121f26121ea856120aa565b830182612191565b50505b505050565b600082821c905092915050565b6000612218600019846008026121fa565b1980831691505092915050565b60006122318383612207565b9150826002028217905092915050565b61224a82611966565b67ffffffffffffffff81111561226357612262611c63565b5b61226d8254611f6a565b6122788282856121b4565b600060209050601f8311600181146122ab5760008415612299578287015190505b6122a38582612225565b86555061230b565b601f1984166122b986612095565b60005b828110156122e1578489015182556001820191506020850194506020810190506122bc565b868310156122fe57848901516122fa601f891682612207565b8355505b6001600288020188555050505b505050505050565b600081519050919050565b600082825260208201905092915050565b600061233a82612313565b612344818561231e565b9350612354818560208601611982565b61235d816119ac565b840191505092915050565b600060808201905061237d6000830187611aad565b61238a6020830186611aad565b6123976040830185611bc3565b81810360608301526123a9818461232f565b905095945050505050565b6000815190506123c3816118d7565b92915050565b6000602082840312156123df576123de6118a1565b5b60006123ed848285016123b4565b91505092915050565b600060408201905061240b6000830185611aad565b6124186020830184611bc3565b9392505050565b7f4e487b7100000000000000000000000000000000000000000000000000000000600052601260045260246000fdfea26469706673582212209d9a1d48bfa04980b5154d1cc8126dd25d44b80e8634b3a2faf3eccfee2114a764736f6c63430008180033",
  "linkReferences": {},
  "deployedLinkReferences": {}
}